{
  "contractName": "Lottery",
  "abi": [
    {
      "inputs": [],
      "stateMutability": "nonpayable",
      "type": "constructor"
    },
    {
      "inputs": [
        {
          "internalType": "uint256",
          "name": "time",
          "type": "uint256"
        }
      ],
      "name": "TooEarly",
      "type": "error"
    },
    {
      "inputs": [
        {
          "internalType": "uint256",
          "name": "time",
          "type": "uint256"
        }
      ],
      "name": "TooLate",
      "type": "error"
    },
    {
      "anonymous": false,
      "inputs": [
        {
          "indexed": false,
          "internalType": "uint8[6]",
          "name": "number",
          "type": "uint8[6]"
        }
      ],
      "name": "LuckyNumber",
      "type": "event"
    },
    {
      "anonymous": false,
      "inputs": [],
      "name": "ResetLottery",
      "type": "event"
    },
    {
      "anonymous": false,
      "inputs": [
        {
          "indexed": true,
          "internalType": "address",
          "name": "_from",
          "type": "address"
        },
        {
          "indexed": false,
          "internalType": "uint8[6]",
          "name": "number",
          "type": "uint8[6]"
        }
      ],
      "name": "TicketsBought",
      "type": "event"
    },
    {
      "inputs": [],
      "name": "contractBalance",
      "outputs": [
        {
          "internalType": "uint256",
          "name": "",
          "type": "uint256"
        }
      ],
      "stateMutability": "view",
      "type": "function",
      "constant": true
    },
    {
      "inputs": [],
      "name": "cutRate",
      "outputs": [
        {
          "internalType": "uint256",
          "name": "",
          "type": "uint256"
        }
      ],
      "stateMutability": "view",
      "type": "function",
      "constant": true
    },
    {
      "inputs": [
        {
          "internalType": "uint256",
          "name": "",
          "type": "uint256"
        }
      ],
      "name": "firstWinners",
      "outputs": [
        {
          "internalType": "address",
          "name": "",
          "type": "address"
        }
      ],
      "stateMutability": "view",
      "type": "function",
      "constant": true
    },
    {
      "inputs": [],
      "name": "lastLotteryId",
      "outputs": [
        {
          "internalType": "uint256",
          "name": "",
          "type": "uint256"
        }
      ],
      "stateMutability": "view",
      "type": "function",
      "constant": true
    },
    {
      "inputs": [],
      "name": "lotteryDuration",
      "outputs": [
        {
          "internalType": "uint256",
          "name": "",
          "type": "uint256"
        }
      ],
      "stateMutability": "view",
      "type": "function",
      "constant": true
    },
    {
      "inputs": [],
      "name": "lotteryEnd",
      "outputs": [
        {
          "internalType": "uint256",
          "name": "",
          "type": "uint256"
        }
      ],
      "stateMutability": "view",
      "type": "function",
      "constant": true
    },
    {
      "inputs": [],
      "name": "lotteryId",
      "outputs": [
        {
          "internalType": "uint256",
          "name": "",
          "type": "uint256"
        }
      ],
      "stateMutability": "view",
      "type": "function",
      "constant": true
    },
    {
      "inputs": [],
      "name": "lotteryStart",
      "outputs": [
        {
          "internalType": "uint256",
          "name": "",
          "type": "uint256"
        }
      ],
      "stateMutability": "view",
      "type": "function",
      "constant": true
    },
    {
      "inputs": [
        {
          "internalType": "uint256",
          "name": "",
          "type": "uint256"
        }
      ],
      "name": "luckyNumber",
      "outputs": [
        {
          "internalType": "uint8",
          "name": "",
          "type": "uint8"
        }
      ],
      "stateMutability": "view",
      "type": "function",
      "constant": true
    },
    {
      "inputs": [],
      "name": "nextGameBalance",
      "outputs": [
        {
          "internalType": "uint256",
          "name": "",
          "type": "uint256"
        }
      ],
      "stateMutability": "view",
      "type": "function",
      "constant": true
    },
    {
      "inputs": [],
      "name": "owner",
      "outputs": [
        {
          "internalType": "address",
          "name": "",
          "type": "address"
        }
      ],
      "stateMutability": "view",
      "type": "function",
      "constant": true
    },
    {
      "inputs": [
        {
          "internalType": "address",
          "name": "",
          "type": "address"
        }
      ],
      "name": "playerChecks",
      "outputs": [
        {
          "internalType": "bool",
          "name": "",
          "type": "bool"
        }
      ],
      "stateMutability": "view",
      "type": "function",
      "constant": true
    },
    {
      "inputs": [
        {
          "internalType": "uint256",
          "name": "",
          "type": "uint256"
        }
      ],
      "name": "players",
      "outputs": [
        {
          "internalType": "address payable",
          "name": "addr",
          "type": "address"
        }
      ],
      "stateMutability": "view",
      "type": "function",
      "constant": true
    },
    {
      "inputs": [
        {
          "internalType": "uint256",
          "name": "",
          "type": "uint256"
        }
      ],
      "name": "secondWinners",
      "outputs": [
        {
          "internalType": "address",
          "name": "",
          "type": "address"
        }
      ],
      "stateMutability": "view",
      "type": "function",
      "constant": true
    },
    {
      "inputs": [
        {
          "internalType": "uint256",
          "name": "",
          "type": "uint256"
        }
      ],
      "name": "thirdWinners",
      "outputs": [
        {
          "internalType": "address",
          "name": "",
          "type": "address"
        }
      ],
      "stateMutability": "view",
      "type": "function",
      "constant": true
    },
    {
      "inputs": [
        {
          "internalType": "address",
          "name": "",
          "type": "address"
        },
        {
          "internalType": "uint256",
          "name": "",
          "type": "uint256"
        }
      ],
      "name": "ticketMap",
      "outputs": [
        {
          "internalType": "bytes32",
          "name": "id",
          "type": "bytes32"
        }
      ],
      "stateMutability": "view",
      "type": "function",
      "constant": true
    },
    {
      "inputs": [],
      "name": "ticketMax",
      "outputs": [
        {
          "internalType": "uint256",
          "name": "",
          "type": "uint256"
        }
      ],
      "stateMutability": "view",
      "type": "function",
      "constant": true
    },
    {
      "inputs": [],
      "name": "ticketPrice",
      "outputs": [
        {
          "internalType": "uint256",
          "name": "",
          "type": "uint256"
        }
      ],
      "stateMutability": "view",
      "type": "function",
      "constant": true
    },
    {
      "inputs": [],
      "name": "buyTicket",
      "outputs": [
        {
          "internalType": "uint8[6]",
          "name": "numbers",
          "type": "uint8[6]"
        }
      ],
      "stateMutability": "payable",
      "type": "function",
      "payable": true
    },
    {
      "inputs": [],
      "name": "pickWinner",
      "outputs": [],
      "stateMutability": "payable",
      "type": "function",
      "payable": true
    },
    {
      "inputs": [],
      "name": "sendMoney",
      "outputs": [],
      "stateMutability": "payable",
      "type": "function",
      "payable": true
    },
    {
      "inputs": [],
      "name": "resetLottery",
      "outputs": [
        {
          "internalType": "bool",
          "name": "success",
          "type": "bool"
        }
      ],
      "stateMutability": "nonpayable",
      "type": "function"
    },
    {
      "inputs": [],
      "name": "getPlayers",
      "outputs": [
        {
          "components": [
            {
              "internalType": "address payable",
              "name": "addr",
              "type": "address"
            },
            {
              "components": [
                {
                  "internalType": "bytes32",
                  "name": "id",
                  "type": "bytes32"
                },
                {
                  "internalType": "uint8[6]",
                  "name": "number",
                  "type": "uint8[6]"
                }
              ],
              "internalType": "struct Lottery.Ticket[]",
              "name": "firstTickets",
              "type": "tuple[]"
            },
            {
              "components": [
                {
                  "internalType": "bytes32",
                  "name": "id",
                  "type": "bytes32"
                },
                {
                  "internalType": "uint8[6]",
                  "name": "number",
                  "type": "uint8[6]"
                }
              ],
              "internalType": "struct Lottery.Ticket[]",
              "name": "secondTickets",
              "type": "tuple[]"
            },
            {
              "components": [
                {
                  "internalType": "bytes32",
                  "name": "id",
                  "type": "bytes32"
                },
                {
                  "internalType": "uint8[6]",
                  "name": "number",
                  "type": "uint8[6]"
                }
              ],
              "internalType": "struct Lottery.Ticket[]",
              "name": "thirdTickets",
              "type": "tuple[]"
            }
          ],
          "internalType": "struct Lottery.Player[]",
          "name": "",
          "type": "tuple[]"
        }
      ],
      "stateMutability": "view",
      "type": "function",
      "constant": true
    },
    {
      "inputs": [],
      "name": "getFirstWinners",
      "outputs": [
        {
          "internalType": "address[]",
          "name": "",
          "type": "address[]"
        }
      ],
      "stateMutability": "view",
      "type": "function",
      "constant": true
    },
    {
      "inputs": [],
      "name": "getSecondWinners",
      "outputs": [
        {
          "internalType": "address[]",
          "name": "",
          "type": "address[]"
        }
      ],
      "stateMutability": "view",
      "type": "function",
      "constant": true
    },
    {
      "inputs": [],
      "name": "getThirdWinners",
      "outputs": [
        {
          "internalType": "address[]",
          "name": "",
          "type": "address[]"
        }
      ],
      "stateMutability": "view",
      "type": "function",
      "constant": true
    },
    {
      "inputs": [
        {
          "internalType": "address",
          "name": "sender",
          "type": "address"
        }
      ],
      "name": "getTickets",
      "outputs": [
        {
          "components": [
            {
              "internalType": "bytes32",
              "name": "id",
              "type": "bytes32"
            },
            {
              "internalType": "uint8[6]",
              "name": "number",
              "type": "uint8[6]"
            }
          ],
          "internalType": "struct Lottery.Ticket[]",
          "name": "",
          "type": "tuple[]"
        }
      ],
      "stateMutability": "view",
      "type": "function",
      "constant": true
    },
    {
      "inputs": [],
      "name": "getLuckyNumber",
      "outputs": [
        {
          "internalType": "uint8[]",
          "name": "",
          "type": "uint8[]"
        }
      ],
      "stateMutability": "view",
      "type": "function",
      "constant": true
    },
    {
      "inputs": [],
      "name": "getLottoId",
      "outputs": [
        {
          "internalType": "uint256",
          "name": "",
          "type": "uint256"
        }
      ],
      "stateMutability": "view",
      "type": "function",
      "constant": true
    },
    {
      "inputs": [],
      "name": "getWinMoney",
      "outputs": [
        {
          "internalType": "uint256",
          "name": "",
          "type": "uint256"
        }
      ],
      "stateMutability": "view",
      "type": "function",
      "constant": true
    },
    {
      "inputs": [],
      "name": "getFirstMoney",
      "outputs": [
        {
          "internalType": "uint256",
          "name": "",
          "type": "uint256"
        }
      ],
      "stateMutability": "view",
      "type": "function",
      "constant": true
    },
    {
      "inputs": [],
      "name": "getSecondMoney",
      "outputs": [
        {
          "internalType": "uint256",
          "name": "",
          "type": "uint256"
        }
      ],
      "stateMutability": "view",
      "type": "function",
      "constant": true
    },
    {
      "inputs": [],
      "name": "getThirdMoney",
      "outputs": [
        {
          "internalType": "uint256",
          "name": "",
          "type": "uint256"
        }
      ],
      "stateMutability": "view",
      "type": "function",
      "constant": true
    },
    {
      "inputs": [],
      "name": "getTicketPrice",
      "outputs": [
        {
          "internalType": "uint256",
          "name": "",
          "type": "uint256"
        }
      ],
      "stateMutability": "pure",
      "type": "function",
      "constant": true
    },
    {
      "inputs": [],
      "name": "getNextMoney",
      "outputs": [
        {
          "internalType": "uint256",
          "name": "",
          "type": "uint256"
        }
      ],
      "stateMutability": "view",
      "type": "function",
      "constant": true
    },
    {
      "inputs": [],
      "name": "getNow",
      "outputs": [
        {
          "internalType": "uint256",
          "name": "",
          "type": "uint256"
        }
      ],
      "stateMutability": "view",
      "type": "function",
      "constant": true
    },
    {
      "inputs": [],
      "name": "getOwner",
      "outputs": [
        {
          "internalType": "address",
          "name": "",
          "type": "address"
        }
      ],
      "stateMutability": "view",
      "type": "function",
      "constant": true
    },
    {
      "inputs": [],
      "name": "getEndTime",
      "outputs": [
        {
          "internalType": "uint256",
          "name": "",
          "type": "uint256"
        }
      ],
      "stateMutability": "view",
      "type": "function",
      "constant": true
    }
  ],
  "bytecode": "0x6080604052600060015560006002556000600355600060045561012c6006556000600f55600060105560006011556000601255600060135560006014556000601555600060165560016017553480156200005857600080fd5b50336000806101000a81548173ffffffffffffffffffffffffffffffffffffffff021916908373ffffffffffffffffffffffffffffffffffffffff160217905550600060018190555042600581905550600654600554620000ba9190620000ff565b6007819055506200013a565b6000819050919050565b7f4e487b7100000000000000000000000000000000000000000000000000000000600052601160045260246000fd5b60006200010c82620000c6565b91506200011983620000c6565b9250828201905080821115620001345762000133620000d0565b5b92915050565b613394806200014a6000396000f3fe6080604052600436106102255760003560e01c80638b5b9ccc11610123578063cd8cc844116100ab578063e580f47b1161006f578063e580f47b146107f1578063e69f19cd1461081c578063eb19df9314610847578063edca914c14610872578063f71d96cb1461089057610225565b8063cd8cc8441461071a578063cf2ca7fb14610745578063d337616e14610770578063d70fa7de1461079b578063e3075e4e146107c657610225565b8063a4b24d87116100f2578063a4b24d8714610640578063a62e80fc1461067d578063ba148f45146106a8578063bbe4fd50146106e5578063cbedbf5a1461071057610225565b80638b5b9ccc146105825780638b7afe2e146105ad5780638da5cb5b146105d85780639bc1e0891461060357610225565b8063439f5ac2116101b157806366ebc7d31161017557806366ebc7d31461048757806369e7cef7146104c45780637fdb22de1461050157806387bb7ae01461052c578063893d20e81461055757610225565b8063439f5ac2146103d15780634ab80d3c146103fc5780634adc70a0146104275780634e3fb85d146104525780635d495aea1461047d57610225565b80631a831322116101f85780631a831322146102e85780631c2f8211146103135780631ee53d3a146103505780632d97902f1461037b57806342aeb48e146103a657610225565b8063060876bd1461022a5780630ad182bc146102555780631209b1f6146102925780631304636c146102bd575b600080fd5b34801561023657600080fd5b5061023f6108cd565b60405161024c91906126f2565b60405180910390f35b34801561026157600080fd5b5061027c60048036038101906102779190612770565b6108d7565b604051610289919061294c565b60405180910390f35b34801561029e57600080fd5b506102a76109ea565b6040516102b491906126f2565b60405180910390f35b3480156102c957600080fd5b506102d26109f6565b6040516102df9190612a2c565b60405180910390f35b3480156102f457600080fd5b506102fd610a84565b60405161030a91906126f2565b60405180910390f35b34801561031f57600080fd5b5061033a60048036038101906103359190612a7a565b610a8e565b6040516103479190612ab6565b60405180910390f35b34801561035c57600080fd5b50610365610acd565b60405161037291906126f2565b60405180910390f35b34801561038757600080fd5b50610390610ad7565b60405161039d91906126f2565b60405180910390f35b3480156103b257600080fd5b506103bb610add565b6040516103c89190612a2c565b60405180910390f35b3480156103dd57600080fd5b506103e6610b6b565b6040516103f391906126f2565b60405180910390f35b34801561040857600080fd5b50610411610b75565b60405161041e91906126f2565b60405180910390f35b34801561043357600080fd5b5061043c610b7b565b60405161044991906126f2565b60405180910390f35b34801561045e57600080fd5b50610467610b85565b60405161047491906126f2565b60405180910390f35b610485610b8b565b005b34801561049357600080fd5b506104ae60048036038101906104a99190612a7a565b611338565b6040516104bb9190612ab6565b60405180910390f35b3480156104d057600080fd5b506104eb60048036038101906104e69190612a7a565b611377565b6040516104f89190612ae0565b60405180910390f35b34801561050d57600080fd5b506105166113ab565b6040516105239190612a2c565b60405180910390f35b34801561053857600080fd5b50610541611439565b60405161054e91906126f2565b60405180910390f35b34801561056357600080fd5b5061056c611449565b6040516105799190612ab6565b60405180910390f35b34801561058e57600080fd5b50610597611472565b6040516105a49190612cbe565b60405180910390f35b3480156105b957600080fd5b506105c26117a3565b6040516105cf91906126f2565b60405180910390f35b3480156105e457600080fd5b506105ed6117a9565b6040516105fa9190612ab6565b60405180910390f35b34801561060f57600080fd5b5061062a60048036038101906106259190612770565b6117cd565b6040516106379190612cfb565b60405180910390f35b34801561064c57600080fd5b5061066760048036038101906106629190612a7a565b6117ed565b6040516106749190612ab6565b60405180910390f35b34801561068957600080fd5b5061069261182c565b60405161069f91906126f2565b60405180910390f35b3480156106b457600080fd5b506106cf60048036038101906106ca9190612d16565b611831565b6040516106dc9190612d65565b60405180910390f35b3480156106f157600080fd5b506106fa61186c565b60405161070791906126f2565b60405180910390f35b610718611874565b005b34801561072657600080fd5b5061072f611d32565b60405161073c91906126f2565b60405180910390f35b34801561075157600080fd5b5061075a611d38565b60405161076791906126f2565b60405180910390f35b34801561077c57600080fd5b50610785611d42565b6040516107929190612cfb565b60405180910390f35b3480156107a757600080fd5b506107b0611f3e565b6040516107bd91906126f2565b60405180910390f35b3480156107d257600080fd5b506107db611f44565b6040516107e891906126f2565b60405180910390f35b3480156107fd57600080fd5b50610806611f49565b60405161081391906126f2565b60405180910390f35b34801561082857600080fd5b50610831611f4f565b60405161083e9190612e17565b60405180910390f35b34801561085357600080fd5b5061085c611fcd565b60405161086991906126f2565b60405180910390f35b61087a611fd7565b6040516108879190612e9b565b60405180910390f35b34801561089c57600080fd5b506108b760048036038101906108b29190612a7a565b61238a565b6040516108c49190612ec5565b60405180910390f35b6000601454905090565b6060600d60008373ffffffffffffffffffffffffffffffffffffffff1673ffffffffffffffffffffffffffffffffffffffff168152602001908152602001600020805480602002602001604051908101604052809291908181526020016000905b828210156109df578382906000526020600020906002020160405180604001604052908160008201548152602001600182016006806020026040519081016040528092919082600680156109c7576020028201916000905b82829054906101000a900460ff1660ff16815260200190600101906020826000010492830192600103820291508084116109905790505b50505050508152505081526020019060010190610938565b505050509050919050565b670214e8348c4f000081565b6060600a805480602002602001604051908101604052809291908181526020018280548015610a7a57602002820191906000526020600020905b8160009054906101000a900473ffffffffffffffffffffffffffffffffffffffff1673ffffffffffffffffffffffffffffffffffffffff1681526020019060010190808311610a30575b5050505050905090565b6000601554905090565b600b8181548110610a9e57600080fd5b906000526020600020016000915054906101000a900473ffffffffffffffffffffffffffffffffffffffff1681565b6000600454905090565b60065481565b6060600c805480602002602001604051908101604052809291908181526020018280548015610b6157602002820191906000526020600020905b8160009054906101000a900473ffffffffffffffffffffffffffffffffffffffff1673ffffffffffffffffffffffffffffffffffffffff1681526020019060010190808311610b17575b5050505050905090565b6000600754905090565b60045481565b6000601654905090565b60025481565b600754804211610bd257806040517f2a35a324000000000000000000000000000000000000000000000000000000008152600401610bc991906126f2565b60405180910390fd5b60006003541480610be557506000600154145b15610c25576040517f08c379a0000000000000000000000000000000000000000000000000000000008152600401610c1c90612f3d565b60405180910390fd5b60008054906101000a900473ffffffffffffffffffffffffffffffffffffffff1673ffffffffffffffffffffffffffffffffffffffff163373ffffffffffffffffffffffffffffffffffffffff1614610c7d57600080fd5b600060015403610cc2576040517f08c379a0000000000000000000000000000000000000000000000000000000008152600401610cb990612fa9565b60405180910390fd5b6040518060c00160405280600160ff1660ff168152602001600260ff1660ff168152602001610cf160076123d8565b60ff1660ff168152602001610d0660076123d8565b60ff1660ff168152602001610d1b60076123d8565b60ff1660ff168152602001610d3060076123d8565b60ff1660ff168152506008906006610d4992919061246d565b5060005b60098054905081101561132c57600060098281548110610d7057610d6f612fc9565b5b906000526020600020906004020190506000600d60008360000160009054906101000a900473ffffffffffffffffffffffffffffffffffffffff1673ffffffffffffffffffffffffffffffffffffffff1673ffffffffffffffffffffffffffffffffffffffff1681526020019081526020016000208054905003610df45750611319565b60005b600d60008360000160009054906101000a900473ffffffffffffffffffffffffffffffffffffffff1673ffffffffffffffffffffffffffffffffffffffff1673ffffffffffffffffffffffffffffffffffffffff16815260200190815260200160002080549050811015611316576000600d60008460000160009054906101000a900473ffffffffffffffffffffffffffffffffffffffff1673ffffffffffffffffffffffffffffffffffffffff1673ffffffffffffffffffffffffffffffffffffffff1681526020019081526020016000208281548110610edc57610edb612fc9565b5b90600052602060002090600202016040518060400160405290816000820154815260200160018201600680602002604051908101604052809291908260068015610f61576020028201916000905b82829054906101000a900460ff1660ff1681526020019060010190602082600001049283019260010382029150808411610f2a5790505b50505050508152505090506000805b60068160ff161015610fff5782602001518160ff1660068110610f9657610f95612fc9565b5b602002015160ff1660088260ff1681548110610fb557610fb4612fc9565b5b90600052602060002090602091828204019190069054906101000a900460ff1660ff1603610fec578180610fe890613027565b9250505b8080610ff790613027565b915050610f70565b5060068160ff1603611101576011600081548092919061101e90613050565b91905055508360010182908060018154018082558091505060019003906000526020600020906002020160009091909190915060008201518160000155602082015181600101906006611072929190612514565b505050600a8460000160009054906101000a900473ffffffffffffffffffffffffffffffffffffffff169080600181540180825580915050600190039060005260206000200160009091909190916101000a81548173ffffffffffffffffffffffffffffffffffffffff021916908373ffffffffffffffffffffffffffffffffffffffff160217905550611301565b60048160ff1610611202576012600081548092919061111f90613050565b91905055508360020182908060018154018082558091505060019003906000526020600020906002020160009091909190915060008201518160000155602082015181600101906006611173929190612514565b505050600b8460000160009054906101000a900473ffffffffffffffffffffffffffffffffffffffff169080600181540180825580915050600190039060005260206000200160009091909190916101000a81548173ffffffffffffffffffffffffffffffffffffffff021916908373ffffffffffffffffffffffffffffffffffffffff160217905550611300565b60028160ff16106112ff576013600081548092919061122090613050565b91905055508360030182908060018154018082558091505060019003906000526020600020906002020160009091909190915060008201518160000155602082015181600101906006611274929190612514565b505050600c8460000160009054906101000a900473ffffffffffffffffffffffffffffffffffffffff169080600181540180825580915050600190039060005260206000200160009091909190916101000a81548173ffffffffffffffffffffffffffffffffffffffff021916908373ffffffffffffffffffffffffffffffffffffffff1602179055505b5b5b5050808061130e90613050565b915050610df7565b50505b808061132490613050565b915050610d4d565b50611335611874565b50565b600a818154811061134857600080fd5b906000526020600020016000915054906101000a900473ffffffffffffffffffffffffffffffffffffffff1681565b6008818154811061138757600080fd5b9060005260206000209060209182820401919006915054906101000a900460ff1681565b6060600b80548060200260200160405190810160405280929190818152602001828054801561142f57602002820191906000526020600020905b8160009054906101000a900473ffffffffffffffffffffffffffffffffffffffff1673ffffffffffffffffffffffffffffffffffffffff16815260200190600101908083116113e5575b5050505050905090565b6000670214e8348c4f0000905090565b60008060009054906101000a900473ffffffffffffffffffffffffffffffffffffffff16905090565b60606009805480602002602001604051908101604052809291908181526020016000905b8282101561179a57838290600052602060002090600402016040518060800160405290816000820160009054906101000a900473ffffffffffffffffffffffffffffffffffffffff1673ffffffffffffffffffffffffffffffffffffffff1673ffffffffffffffffffffffffffffffffffffffff16815260200160018201805480602002602001604051908101604052809291908181526020016000905b828210156115db578382906000526020600020906002020160405180604001604052908160008201548152602001600182016006806020026040519081016040528092919082600680156115c3576020028201916000905b82829054906101000a900460ff1660ff168152602001906001019060208260000104928301926001038202915080841161158c5790505b50505050508152505081526020019060010190611534565b50505050815260200160028201805480602002602001604051908101604052809291908181526020016000905b828210156116af57838290600052602060002090600202016040518060400160405290816000820154815260200160018201600680602002604051908101604052809291908260068015611697576020028201916000905b82829054906101000a900460ff1660ff16815260200190600101906020826000010492830192600103820291508084116116605790505b50505050508152505081526020019060010190611608565b50505050815260200160038201805480602002602001604051908101604052809291908181526020016000905b828210156117835783829060005260206000209060020201604051806040016040529081600082015481526020016001820160068060200260405190810160405280929190826006801561176b576020028201916000905b82829054906101000a900460ff1660ff16815260200190600101906020826000010492830192600103820291508084116117345790505b505050505081525050815260200190600101906116dc565b505050508152505081526020019060010190611496565b50505050905090565b60035481565b60008054906101000a900473ffffffffffffffffffffffffffffffffffffffff1681565b600e6020528060005260406000206000915054906101000a900460ff1681565b600c81815481106117fd57600080fd5b906000526020600020016000915054906101000a900473ffffffffffffffffffffffffffffffffffffffff1681565b604b81565b600d602052816000526040600020818154811061184d57600080fd5b9060005260206000209060020201600091509150508060000154905081565b600042905090565b60008054906101000a900473ffffffffffffffffffffffffffffffffffffffff1673ffffffffffffffffffffffffffffffffffffffff163373ffffffffffffffffffffffffffffffffffffffff16146118cc57600080fd5b600060035414806118df57506000600154145b1561191f576040517f08c379a000000000000000000000000000000000000000000000000000000000815260040161191690612f3d565b60405180910390fd5b604b606460035461193091906130c7565b61193a91906130f8565b600f81905550600f5460036000828254611954919061313a565b9250508190555060006011540361199d5760466064600f5461197691906130c7565b61198091906130f8565b60046000828254611991919061316e565b925050819055506119cc565b60115460466064600f546119b191906130c7565b6119bb91906130f8565b6119c591906130c7565b6014819055505b600060125403611a0e57600f6064600f546119e791906130c7565b6119f191906130f8565b60046000828254611a02919061316e565b92505081905550611a3d565b601254600f6064600f54611a2291906130c7565b611a2c91906130f8565b611a3691906130c7565b6015819055505b600060135403611a7f57600f6064600f54611a5891906130c7565b611a6291906130f8565b60046000828254611a73919061316e565b92505081905550611aae565b601354600f6064600f54611a9391906130c7565b611a9d91906130f8565b611aa791906130c7565b6016819055505b60005b600980549050811015611d2f57600060098281548110611ad457611ad3612fc9565b5b906000526020600020906004020190506014548160010180549050611af991906130f8565b60106000828254611b0a919061316e565b925050819055506015548160020180549050611b2691906130f8565b60106000828254611b37919061316e565b925050819055506016548160030180549050611b5391906130f8565b60106000828254611b64919061316e565b92505081905550600081600101805490501115611bfb578060000160009054906101000a900473ffffffffffffffffffffffffffffffffffffffff1673ffffffffffffffffffffffffffffffffffffffff166108fc6014548360010180549050611bce91906130f8565b9081150290604051600060405180830381858888f19350505050158015611bf9573d6000803e3d6000fd5b505b600081600201805490501115611c8b578060000160009054906101000a900473ffffffffffffffffffffffffffffffffffffffff1673ffffffffffffffffffffffffffffffffffffffff166108fc6015548360020180549050611c5e91906130f8565b9081150290604051600060405180830381858888f19350505050158015611c89573d6000803e3d6000fd5b505b600081600301805490501115611d1b578060000160009054906101000a900473ffffffffffffffffffffffffffffffffffffffff1673ffffffffffffffffffffffffffffffffffffffff166108fc6016548360030180549050611cee91906130f8565b9081150290604051600060405180830381858888f19350505050158015611d19573d6000803e3d6000fd5b505b508080611d2790613050565b915050611ab1565b50565b60055481565b6000600354905090565b60008060009054906101000a900473ffffffffffffffffffffffffffffffffffffffff1673ffffffffffffffffffffffffffffffffffffffff163373ffffffffffffffffffffffffffffffffffffffff1614611d9d57600080fd5b600754804211611de457806040517f2a35a324000000000000000000000000000000000000000000000000000000008152600401611ddb91906126f2565b60405180910390fd5b42600581905550600654600554611dfb919061316e565b60078190555060045460036000828254611e15919061316e565b925050819055506000600481905550600154600281905550600060018190555060005b600980549050811015611efb57600060098281548110611e5b57611e5a612fc9565b5b906000526020600020906004020190506000600e60008360000160009054906101000a900473ffffffffffffffffffffffffffffffffffffffff1673ffffffffffffffffffffffffffffffffffffffff1673ffffffffffffffffffffffffffffffffffffffff16815260200190815260200160002060006101000a81548160ff021916908315150217905550508080611ef390613050565b915050611e38565b5060096000611f0a91906125ae565b7f893ef2883e1d002809b0ecad6cae93cb02eb514120b5f0b472f986d0d5f216a360405160405180910390a1600191505090565b60075481565b601481565b60015481565b60606008805480602002602001604051908101604052809291908181526020018280548015611fc357602002820191906000526020600020906000905b82829054906101000a900460ff1660ff1681526020019060010190602082600001049283019260010382029150808411611f8c5790505b5050505050905090565b6000600154905090565b611fdf6125d2565b6014600d60003373ffffffffffffffffffffffffffffffffffffffff1673ffffffffffffffffffffffffffffffffffffffff168152602001908152602001600020805490501115612065576040517f08c379a000000000000000000000000000000000000000000000000000000000815260040161205c906131ee565b60405180910390fd5b6007548042106120ac57806040517f691e56820000000000000000000000000000000000000000000000000000000081526004016120a391906126f2565b60405180910390fd5b60001515600e60003373ffffffffffffffffffffffffffffffffffffffff1673ffffffffffffffffffffffffffffffffffffffff16815260200190815260200160002060009054906101000a900460ff161515036121c557600060096001816001815401808255809150500390600052602060002090600402019050338160000160006101000a81548173ffffffffffffffffffffffffffffffffffffffff021916908373ffffffffffffffffffffffffffffffffffffffff1602179055506001600e60003373ffffffffffffffffffffffffffffffffffffffff1673ffffffffffffffffffffffffffffffffffffffff16815260200190815260200160002060006101000a81548160ff021916908315150217905550505b60006040518060c00160405280600160ff1660ff168152602001600260ff1660ff168152602001600360ff1660ff16815260200161220360076123d8565b60ff1660ff16815260200161221860076123d8565b60ff1660ff16815260200161222d60076123d8565b60ff1660ff168152509050600d60003373ffffffffffffffffffffffffffffffffffffffff1673ffffffffffffffffffffffffffffffffffffffff16815260200190815260200160002060405180604001604052804260175460405160200161229792919061322f565b60405160208183030381529060405280519060200120815260200183815250908060018154018082558091505060019003906000526020600020906002020160009091909190915060008201518160000155602082015181600101906006612300929190612514565b5050503460036000828254612315919061316e565b925050819055506001600081548092919061232f90613050565b91905055503373ffffffffffffffffffffffffffffffffffffffff167f520063c274557796b2b9a987fb9b46c6d4718b59891ad44a9e2039344e7160258260405161237a9190612e9b565b60405180910390a2809250505090565b6009818154811061239a57600080fd5b90600052602060002090600402016000915090508060000160009054906101000a900473ffffffffffffffffffffffffffffffffffffffff16905081565b60008060018344426017546040516020016123f3919061325b565b604051602081830303815290604052805190602001203360405160200161241d94939291906132df565b6040516020818303038152906040528051906020012060001c612440919061332d565b61244a919061316e565b90506017600081548092919061245f90613050565b919050555080915050919050565b82805482825590600052602060002090601f016020900481019282156125035791602002820160005b838211156124d457835183826101000a81548160ff021916908360ff1602179055509260200192600101602081600001049283019260010302612496565b80156125015782816101000a81549060ff02191690556001016020816000010492830192600103026124d4565b505b50905061251091906125f4565b5090565b826006601f0160209004810192821561259d5791602002820160005b8382111561256e57835183826101000a81548160ff021916908360ff1602179055509260200192600101602081600001049283019260010302612530565b801561259b5782816101000a81549060ff021916905560010160208160000104928301926001030261256e565b505b5090506125aa91906125f4565b5090565b50805460008255600402906000526020600020908101906125cf9190612611565b50565b6040518060c00160405280600690602082028036833780820191505090505090565b5b8082111561260d5760008160009055506001016125f5565b5090565b5b8082111561267b57600080820160006101000a81549073ffffffffffffffffffffffffffffffffffffffff0219169055600182016000612652919061267f565b600282016000612662919061267f565b600382016000612672919061267f565b50600401612612565b5090565b50805460008255600202906000526020600020908101906126a091906126a3565b50565b5b808211156126ce576000808201600090556001820160006126c591906126d2565b506002016126a4565b5090565b5060009055565b6000819050919050565b6126ec816126d9565b82525050565b600060208201905061270760008301846126e3565b92915050565b600080fd5b600073ffffffffffffffffffffffffffffffffffffffff82169050919050565b600061273d82612712565b9050919050565b61274d81612732565b811461275857600080fd5b50565b60008135905061276a81612744565b92915050565b6000602082840312156127865761278561270d565b5b60006127948482850161275b565b91505092915050565b600081519050919050565b600082825260208201905092915050565b6000819050602082019050919050565b6000819050919050565b6127dc816127c9565b82525050565b600060069050919050565b600081905092915050565b6000819050919050565b600060ff82169050919050565b61281881612802565b82525050565b600061282a838361280f565b60208301905092915050565b6000602082019050919050565b61284c816127e2565b61285681846127ed565b9250612861826127f8565b8060005b83811015612892578151612879878261281e565b965061288483612836565b925050600181019050612865565b505050505050565b60e0820160008201516128b060008501826127d3565b5060208201516128c36020850182612843565b50505050565b60006128d5838361289a565b60e08301905092915050565b6000602082019050919050565b60006128f98261279d565b61290381856127a8565b935061290e836127b9565b8060005b8381101561293f57815161292688826128c9565b9750612931836128e1565b925050600181019050612912565b5085935050505092915050565b6000602082019050818103600083015261296681846128ee565b905092915050565b600081519050919050565b600082825260208201905092915050565b6000819050602082019050919050565b6129a381612732565b82525050565b60006129b5838361299a565b60208301905092915050565b6000602082019050919050565b60006129d98261296e565b6129e38185612979565b93506129ee8361298a565b8060005b83811015612a1f578151612a0688826129a9565b9750612a11836129c1565b9250506001810190506129f2565b5085935050505092915050565b60006020820190508181036000830152612a4681846129ce565b905092915050565b612a57816126d9565b8114612a6257600080fd5b50565b600081359050612a7481612a4e565b92915050565b600060208284031215612a9057612a8f61270d565b5b6000612a9e84828501612a65565b91505092915050565b612ab081612732565b82525050565b6000602082019050612acb6000830184612aa7565b92915050565b612ada81612802565b82525050565b6000602082019050612af56000830184612ad1565b92915050565b600081519050919050565b600082825260208201905092915050565b6000819050602082019050919050565b6000612b3282612712565b9050919050565b612b4281612b27565b82525050565b600082825260208201905092915050565b6000612b648261279d565b612b6e8185612b48565b9350612b79836127b9565b8060005b83811015612baa578151612b9188826128c9565b9750612b9c836128e1565b925050600181019050612b7d565b5085935050505092915050565b6000608083016000830151612bcf6000860182612b39565b5060208301518482036020860152612be78282612b59565b91505060408301518482036040860152612c018282612b59565b91505060608301518482036060860152612c1b8282612b59565b9150508091505092915050565b6000612c348383612bb7565b905092915050565b6000602082019050919050565b6000612c5482612afb565b612c5e8185612b06565b935083602082028501612c7085612b17565b8060005b85811015612cac5784840389528151612c8d8582612c28565b9450612c9883612c3c565b925060208a01995050600181019050612c74565b50829750879550505050505092915050565b60006020820190508181036000830152612cd88184612c49565b905092915050565b60008115159050919050565b612cf581612ce0565b82525050565b6000602082019050612d106000830184612cec565b92915050565b60008060408385031215612d2d57612d2c61270d565b5b6000612d3b8582860161275b565b9250506020612d4c85828601612a65565b9150509250929050565b612d5f816127c9565b82525050565b6000602082019050612d7a6000830184612d56565b92915050565b600081519050919050565b600082825260208201905092915050565b6000819050602082019050919050565b6000602082019050919050565b6000612dc482612d80565b612dce8185612d8b565b9350612dd983612d9c565b8060005b83811015612e0a578151612df1888261281e565b9750612dfc83612dac565b925050600181019050612ddd565b5085935050505092915050565b60006020820190508181036000830152612e318184612db9565b905092915050565b600081905092915050565b612e4d816127e2565b612e578184612e39565b9250612e62826127f8565b8060005b83811015612e93578151612e7a878261281e565b9650612e8583612836565b925050600181019050612e66565b505050505050565b600060c082019050612eb06000830184612e44565b92915050565b612ebf81612b27565b82525050565b6000602082019050612eda6000830184612eb6565b92915050565b600082825260208201905092915050565b7f4e6f7420656e6f756768206c6f74746572790000000000000000000000000000600082015250565b6000612f27601283612ee0565b9150612f3282612ef1565b602082019050919050565b60006020820190508181036000830152612f5681612f1a565b9050919050565b7f4e6f20706c617965720000000000000000000000000000000000000000000000600082015250565b6000612f93600983612ee0565b9150612f9e82612f5d565b602082019050919050565b60006020820190508181036000830152612fc281612f86565b9050919050565b7f4e487b7100000000000000000000000000000000000000000000000000000000600052603260045260246000fd5b7f4e487b7100000000000000000000000000000000000000000000000000000000600052601160045260246000fd5b600061303282612802565b915060ff820361304557613044612ff8565b5b600182019050919050565b600061305b826126d9565b91507fffffffffffffffffffffffffffffffffffffffffffffffffffffffffffffffff820361308d5761308c612ff8565b5b600182019050919050565b7f4e487b7100000000000000000000000000000000000000000000000000000000600052601260045260246000fd5b60006130d2826126d9565b91506130dd836126d9565b9250826130ed576130ec613098565b5b828204905092915050565b6000613103826126d9565b915061310e836126d9565b925082820261311c816126d9565b9150828204841483151761313357613132612ff8565b5b5092915050565b6000613145826126d9565b9150613150836126d9565b925082820390508181111561316857613167612ff8565b5b92915050565b6000613179826126d9565b9150613184836126d9565b925082820190508082111561319c5761319b612ff8565b5b92915050565b7f546f6f206d616e79207469636b65747300000000000000000000000000000000600082015250565b60006131d8601083612ee0565b91506131e3826131a2565b602082019050919050565b60006020820190508181036000830152613207816131cb565b9050919050565b6000819050919050565b613229613224826126d9565b61320e565b82525050565b600061323b8285613218565b60208201915061324b8284613218565b6020820191508190509392505050565b60006132678284613218565b60208201915081905092915050565b6000819050919050565b61329161328c826127c9565b613276565b82525050565b60008160601b9050919050565b60006132af82613297565b9050919050565b60006132c1826132a4565b9050919050565b6132d96132d482612732565b6132b6565b82525050565b60006132eb8287613218565b6020820191506132fb8286613218565b60208201915061330b8285613280565b60208201915061331b82846132c8565b60148201915081905095945050505050565b6000613338826126d9565b9150613343836126d9565b92508261335357613352613098565b5b82820690509291505056fea2646970667358221220da89458d8c0f0a1dea301415106ead305487770b6508f75803a786720eb55fc164736f6c63430008110033",
  "immutableReferences": {},
  "source": "// SPDX-License-Identifier: MIT\r\npragma solidity ^0.8.0;\r\n\r\n/**\r\n * @title Lottery\r\n * @dev Lottery  \r\n */\r\ncontract Lottery {\r\n    //  \r\n    struct Ticket {\r\n        bytes32 id;\r\n        uint8[6] number;\r\n    }\r\n\r\n    //  \r\n    struct Player {\r\n        address payable addr;\r\n        Ticket[] firstTickets;\r\n        Ticket[] secondTickets;\r\n        Ticket[] thirdTickets;\r\n    }\r\n\r\n    // Lottery \r\n    address public owner;\r\n    uint256 public lotteryId = 0; //   \r\n    uint256 public lastLotteryId = 0;\r\n    uint256 public contractBalance = 0;\r\n    uint256 public nextGameBalance = 0;\r\n\r\n    //  \r\n    uint256 public lotteryStart;\r\n    uint256 public lotteryDuration = 5 minutes;\r\n    uint256 public lotteryEnd;\r\n\r\n    uint256 public constant ticketMax = 20;\r\n    uint256 public constant ticketPrice = .15 ether;\r\n    uint256 public constant cutRate = 75; // 75%, float \r\n\r\n    uint8[] public luckyNumber; // private  private \r\n\r\n    // mapping(address => Player) public players;\r\n    Player[] public players; //     \r\n\r\n    address[] public firstWinners; //  \r\n    address[] public secondWinners; //  \r\n    address[] public thirdWinners; //  \r\n\r\n    // mapping(address => FirstTicket[]) firstTicketMap;\r\n    mapping(address => Ticket[]) public ticketMap; //    (gas fee )\r\n    mapping(address => bool) public playerChecks; // solidity mapping existence  \r\n\r\n    // TEMPS\r\n    uint256 actualPrice = 0;\r\n    uint256 eventMoney = 0;\r\n    uint256 firstWinner = 0;\r\n    uint256 secondWinner = 0;\r\n    uint256 thirdWinner = 0;\r\n    uint256 firstMoney = 0;\r\n    uint256 secondMoney = 0;\r\n    uint256 thirdMoney = 0;\r\n    uint256 nonce = 1;\r\n    //\r\n\r\n    // \r\n    event TicketsBought(address indexed _from, uint8[6] number);\r\n    event ResetLottery();\r\n    event LuckyNumber(uint8[6] number);\r\n\r\n    error TooEarly(uint256 time);\r\n    error TooLate(uint256 time);\r\n\r\n    // Modifiers\r\n\r\n    // 20  modifier\r\n    modifier enoughTicket() {\r\n        if (ticketMap[msg.sender].length > ticketMax)\r\n            revert(\"Too many tickets\");\r\n        _;\r\n    }\r\n\r\n    modifier restricted() {\r\n        require(msg.sender == owner);\r\n        _;\r\n    }\r\n\r\n    modifier enoughMoney() {\r\n        if (msg.value < ticketPrice) {\r\n            revert(\"Not enough money\");\r\n        } else {\r\n            _;\r\n        }\r\n    }\r\n\r\n    modifier onlyBefore(uint256 time) {\r\n        if (block.timestamp >= time) revert TooLate(time);\r\n        _;\r\n    }\r\n\r\n    modifier onlyAfter(uint256 time) {\r\n        if (block.timestamp <= time) revert TooEarly(time);\r\n        _;\r\n    }\r\n\r\n    modifier enoughLottery() {\r\n        if (contractBalance == 0 || lotteryId == 0) {\r\n            revert(\"Not enough lottery\");\r\n        } else {\r\n            _;\r\n        }\r\n    }\r\n\r\n    /** ------------ Functions ------------ **/\r\n\r\n    constructor() {\r\n        owner = msg.sender;\r\n        lotteryId = 0;\r\n\r\n        // Time\r\n        lotteryStart = block.timestamp;\r\n        lotteryEnd = lotteryStart + lotteryDuration;\r\n    }\r\n\r\n    // TODO: ChainLink VRF  unpredictable random number generate \r\n    function random(uint256 dom) private returns (uint256) {\r\n        uint256 rand = (uint256(\r\n            keccak256(\r\n                abi.encodePacked(\r\n                    block.difficulty,\r\n                    block.timestamp,\r\n                    keccak256(abi.encodePacked(nonce)),\r\n                    msg.sender\r\n                )\r\n            )\r\n        ) % dom) + 1;\r\n        nonce++;\r\n        return rand; // 1 ~ dom\r\n    }\r\n\r\n    //  : BUY - PICK - SEND\r\n    //   20   \r\n    // dApp          \r\n    // lotteryOngoing\r\n    function buyTicket()\r\n        public\r\n        payable\r\n        enoughTicket\r\n        onlyBefore(lotteryEnd)\r\n        returns (uint8[6] memory numbers)\r\n    {\r\n        // if (msg.value < amount * ticketPrice) {\r\n        //     return false; //     \r\n        // }\r\n\r\n        if (playerChecks[msg.sender] == false) {\r\n            // uint256 id = players.length;\r\n            Player storage p = players.push(); // solidity   ,  empty space \r\n            p.addr = payable(msg.sender);\r\n            playerChecks[msg.sender] = true;\r\n        }\r\n\r\n        uint8[6] memory number = [\r\n            uint8(1),\r\n            uint8(2),\r\n            uint8(3),\r\n            uint8(random(7)),\r\n            uint8(random(7)),\r\n            uint8(random(7))\r\n        ];\r\n\r\n        ticketMap[msg.sender].push(\r\n            Ticket(keccak256(abi.encodePacked(block.timestamp, nonce)), number)\r\n        );\r\n\r\n        contractBalance += msg.value;\r\n        lotteryId++; // dApp      \r\n        emit TicketsBought(msg.sender, number);\r\n        return number;\r\n    }\r\n\r\n    function pickWinner()\r\n        public\r\n        payable\r\n        onlyAfter(lotteryEnd)\r\n        enoughLottery\r\n        restricted\r\n    {\r\n        //  \r\n        if (lotteryId == 0) {\r\n            revert(\"No player\");\r\n        }\r\n\r\n        luckyNumber = [\r\n            uint8(1),\r\n            uint8(2),\r\n            uint8(random(7)),\r\n            uint8(random(7)),\r\n            uint8(random(7)),\r\n            uint8(random(7))\r\n        ];\r\n\r\n        for (uint256 i = 0; i < players.length; i++) {\r\n            Player storage player = players[i];\r\n            if (ticketMap[player.addr].length == 0) continue;\r\n\r\n            for (uint256 j = 0; j < ticketMap[player.addr].length; j++) {\r\n                Ticket memory ticket = ticketMap[player.addr][j];\r\n                uint8 counts = 0;\r\n\r\n                for (uint8 t = 0; t < 6; t++) {\r\n                    if (luckyNumber[t] == ticket.number[t]) counts++;\r\n                }\r\n\r\n                if (counts == 6) {\r\n                    firstWinner++;\r\n                    player.firstTickets.push(ticket);\r\n                    firstWinners.push(player.addr);\r\n                } else if (counts >= 4) {\r\n                    //  6   if\r\n                    secondWinner++;\r\n                    player.secondTickets.push(ticket);\r\n                    secondWinners.push(player.addr);\r\n                } else if (counts >= 2) {\r\n                    thirdWinner++;\r\n                    player.thirdTickets.push(ticket);\r\n                    thirdWinners.push(player.addr);\r\n                }\r\n            }\r\n        }\r\n\r\n        sendMoney();\r\n    }\r\n\r\n    function sendMoney() public payable restricted enoughLottery {\r\n        actualPrice = (contractBalance / 100) * cutRate; // 75%, fixed point ;\r\n        contractBalance -= actualPrice;\r\n\r\n        if (firstWinner == 0) {\r\n            nextGameBalance += (actualPrice / 100) * 70;\r\n        } else {\r\n            firstMoney = ((actualPrice / 100) * 70) / firstWinner;\r\n        }\r\n\r\n        if (secondWinner == 0) {\r\n            nextGameBalance += (actualPrice / 100) * 15;\r\n        } else {\r\n            secondMoney = ((actualPrice / 100) * 15) / secondWinner;\r\n        }\r\n\r\n        if (thirdWinner == 0) {\r\n            nextGameBalance += (actualPrice / 100) * 15;\r\n        } else {\r\n            thirdMoney = ((actualPrice / 100) * 15) / thirdWinner;\r\n        }\r\n\r\n        for (uint256 i = 0; i < players.length; i++) {\r\n            Player storage player = players[i];\r\n\r\n            eventMoney += player.firstTickets.length * firstMoney;\r\n            eventMoney += player.secondTickets.length * secondMoney;\r\n            eventMoney += player.thirdTickets.length * thirdMoney;\r\n\r\n            if (player.firstTickets.length > 0) {\r\n                player.addr.transfer(player.firstTickets.length * firstMoney);\r\n            }\r\n            if (player.secondTickets.length > 0) {\r\n                player.addr.transfer(player.secondTickets.length * secondMoney);\r\n            }\r\n            if (player.thirdTickets.length > 0) {\r\n                player.addr.transfer(player.thirdTickets.length * thirdMoney);\r\n            }\r\n        }\r\n    }\r\n\r\n    // lotteryFinished\r\n    function resetLottery()\r\n        public\r\n        restricted\r\n        onlyAfter(lotteryEnd)\r\n        returns (bool success)\r\n    {\r\n        lotteryStart = block.timestamp;\r\n        lotteryEnd = lotteryStart + lotteryDuration;\r\n\r\n        contractBalance += nextGameBalance;\r\n        nextGameBalance = 0;\r\n\r\n        lastLotteryId = lotteryId;\r\n        lotteryId = 0;\r\n\r\n        for (uint256 i = 0; i < players.length; i++) {\r\n            Player storage player = players[i];\r\n            playerChecks[player.addr] = false;\r\n        }\r\n        delete players;\r\n        // TODO mapping reset?\r\n\r\n        emit ResetLottery();\r\n        return true;\r\n    }\r\n\r\n    /** ------------ Getter ------------ **/\r\n\r\n    function getPlayers() public view returns (Player[] memory) {\r\n        return players;\r\n    }\r\n\r\n    function getFirstWinners() public view returns (address[] memory) {\r\n        return firstWinners;\r\n    }\r\n\r\n    function getSecondWinners() public view returns (address[] memory) {\r\n        return secondWinners;\r\n    }\r\n\r\n    function getThirdWinners() public view returns (address[] memory) {\r\n        return thirdWinners;\r\n    }\r\n\r\n    function getTickets(address sender) public view returns (Ticket[] memory) {\r\n        return ticketMap[sender];\r\n    }\r\n\r\n    // function getTicketAmount(address sender) public view returns (uint256) {\r\n    //     return ticketMap[sender].length;\r\n    // }\r\n\r\n    function getLuckyNumber() public view returns (uint8[] memory) {\r\n        return luckyNumber;\r\n    }\r\n\r\n    function getLottoId() public view returns (uint256) {\r\n        return lotteryId;\r\n    }\r\n\r\n    function getWinMoney() public view returns (uint256) {\r\n        return contractBalance;\r\n    }\r\n\r\n    function getFirstMoney() public view returns (uint256) {\r\n        return firstMoney;\r\n    }\r\n\r\n    function getSecondMoney() public view returns (uint256) {\r\n        return secondMoney;\r\n    }\r\n\r\n    function getThirdMoney() public view returns (uint256) {\r\n        return thirdMoney;\r\n    }\r\n\r\n    function getTicketPrice() public pure returns (uint256) {\r\n        return ticketPrice;\r\n    }\r\n\r\n    function getNextMoney() public view returns (uint256) {\r\n        return nextGameBalance;\r\n    }\r\n\r\n    function getNow() public view returns (uint256) {\r\n        return block.timestamp;\r\n    }\r\n\r\n    function getOwner() public view returns (address) {\r\n        return owner;\r\n    }\r\n\r\n    function getEndTime() public view returns (uint256) {\r\n        return lotteryEnd;\r\n    }\r\n}\r\n",
  "sourcePath": "D:\\Dev\\DappLottery\\contracts\\Lottery.sol",
  "compiler": {
    "name": "solc",
    "version": "0.8.17+commit.8df45f5f.Emscripten.clang"
  },
  "schemaVersion": "3.4.10",
  "updatedAt": "2022-11-25T09:21:10.577Z",
  "networkType": "ethereum",
  "devdoc": {
    "details": "Lottery  ",
    "kind": "dev",
    "methods": {},
    "title": "Lottery",
    "version": 1
  },
  "userdoc": {
    "kind": "user",
    "methods": {
      "constructor": {
        "notice": "------------ Functions ------------ *"
      },
      "getPlayers()": {
        "notice": "------------ Getter ------------ *"
      }
    },
    "version": 1
  }
}